{
  "contractName": "Erc1155Token",
  "abi": [
    {
      "inputs": [
        {
          "internalType": "string",
          "name": "_name",
          "type": "string"
        },
        {
          "internalType": "string",
          "name": "_symbol",
          "type": "string"
        }
      ],
      "stateMutability": "nonpayable",
      "type": "constructor"
    },
    {
      "anonymous": false,
      "inputs": [
        {
          "indexed": true,
          "internalType": "address",
          "name": "account",
          "type": "address"
        },
        {
          "indexed": true,
          "internalType": "address",
          "name": "operator",
          "type": "address"
        },
        {
          "indexed": false,
          "internalType": "bool",
          "name": "approved",
          "type": "bool"
        }
      ],
      "name": "ApprovalForAll",
      "type": "event"
    },
    {
      "anonymous": false,
      "inputs": [
        {
          "indexed": true,
          "internalType": "address",
          "name": "previousOwner",
          "type": "address"
        },
        {
          "indexed": true,
          "internalType": "address",
          "name": "newOwner",
          "type": "address"
        }
      ],
      "name": "OwnershipTransferred",
      "type": "event"
    },
    {
      "anonymous": false,
      "inputs": [
        {
          "indexed": true,
          "internalType": "address",
          "name": "operator",
          "type": "address"
        },
        {
          "indexed": true,
          "internalType": "address",
          "name": "from",
          "type": "address"
        },
        {
          "indexed": true,
          "internalType": "address",
          "name": "to",
          "type": "address"
        },
        {
          "indexed": false,
          "internalType": "uint256[]",
          "name": "ids",
          "type": "uint256[]"
        },
        {
          "indexed": false,
          "internalType": "uint256[]",
          "name": "values",
          "type": "uint256[]"
        }
      ],
      "name": "TransferBatch",
      "type": "event"
    },
    {
      "anonymous": false,
      "inputs": [
        {
          "indexed": true,
          "internalType": "address",
          "name": "operator",
          "type": "address"
        },
        {
          "indexed": true,
          "internalType": "address",
          "name": "from",
          "type": "address"
        },
        {
          "indexed": true,
          "internalType": "address",
          "name": "to",
          "type": "address"
        },
        {
          "indexed": false,
          "internalType": "uint256",
          "name": "id",
          "type": "uint256"
        },
        {
          "indexed": false,
          "internalType": "uint256",
          "name": "value",
          "type": "uint256"
        }
      ],
      "name": "TransferSingle",
      "type": "event"
    },
    {
      "anonymous": false,
      "inputs": [
        {
          "indexed": false,
          "internalType": "string",
          "name": "value",
          "type": "string"
        },
        {
          "indexed": true,
          "internalType": "uint256",
          "name": "id",
          "type": "uint256"
        }
      ],
      "name": "URI",
      "type": "event"
    },
    {
      "inputs": [
        {
          "internalType": "address",
          "name": "account",
          "type": "address"
        },
        {
          "internalType": "uint256",
          "name": "id",
          "type": "uint256"
        }
      ],
      "name": "balanceOf",
      "outputs": [
        {
          "internalType": "uint256",
          "name": "",
          "type": "uint256"
        }
      ],
      "stateMutability": "view",
      "type": "function"
    },
    {
      "inputs": [
        {
          "internalType": "address[]",
          "name": "accounts",
          "type": "address[]"
        },
        {
          "internalType": "uint256[]",
          "name": "ids",
          "type": "uint256[]"
        }
      ],
      "name": "balanceOfBatch",
      "outputs": [
        {
          "internalType": "uint256[]",
          "name": "",
          "type": "uint256[]"
        }
      ],
      "stateMutability": "view",
      "type": "function"
    },
    {
      "inputs": [
        {
          "internalType": "address",
          "name": "account",
          "type": "address"
        },
        {
          "internalType": "address",
          "name": "operator",
          "type": "address"
        }
      ],
      "name": "isApprovedForAll",
      "outputs": [
        {
          "internalType": "bool",
          "name": "",
          "type": "bool"
        }
      ],
      "stateMutability": "view",
      "type": "function"
    },
    {
      "inputs": [],
      "name": "name",
      "outputs": [
        {
          "internalType": "string",
          "name": "",
          "type": "string"
        }
      ],
      "stateMutability": "view",
      "type": "function"
    },
    {
      "inputs": [],
      "name": "owner",
      "outputs": [
        {
          "internalType": "address",
          "name": "",
          "type": "address"
        }
      ],
      "stateMutability": "view",
      "type": "function"
    },
    {
      "inputs": [],
      "name": "renounceOwnership",
      "outputs": [],
      "stateMutability": "nonpayable",
      "type": "function"
    },
    {
      "inputs": [
        {
          "internalType": "address",
          "name": "from",
          "type": "address"
        },
        {
          "internalType": "address",
          "name": "to",
          "type": "address"
        },
        {
          "internalType": "uint256[]",
          "name": "ids",
          "type": "uint256[]"
        },
        {
          "internalType": "uint256[]",
          "name": "amounts",
          "type": "uint256[]"
        },
        {
          "internalType": "bytes",
          "name": "data",
          "type": "bytes"
        }
      ],
      "name": "safeBatchTransferFrom",
      "outputs": [],
      "stateMutability": "nonpayable",
      "type": "function"
    },
    {
      "inputs": [
        {
          "internalType": "address",
          "name": "from",
          "type": "address"
        },
        {
          "internalType": "address",
          "name": "to",
          "type": "address"
        },
        {
          "internalType": "uint256",
          "name": "id",
          "type": "uint256"
        },
        {
          "internalType": "uint256",
          "name": "amount",
          "type": "uint256"
        },
        {
          "internalType": "bytes",
          "name": "data",
          "type": "bytes"
        }
      ],
      "name": "safeTransferFrom",
      "outputs": [],
      "stateMutability": "nonpayable",
      "type": "function"
    },
    {
      "inputs": [
        {
          "internalType": "address",
          "name": "operator",
          "type": "address"
        },
        {
          "internalType": "bool",
          "name": "approved",
          "type": "bool"
        }
      ],
      "name": "setApprovalForAll",
      "outputs": [],
      "stateMutability": "nonpayable",
      "type": "function"
    },
    {
      "inputs": [
        {
          "internalType": "bytes4",
          "name": "interfaceId",
          "type": "bytes4"
        }
      ],
      "name": "supportsInterface",
      "outputs": [
        {
          "internalType": "bool",
          "name": "",
          "type": "bool"
        }
      ],
      "stateMutability": "view",
      "type": "function"
    },
    {
      "inputs": [],
      "name": "symbol",
      "outputs": [
        {
          "internalType": "string",
          "name": "",
          "type": "string"
        }
      ],
      "stateMutability": "view",
      "type": "function"
    },
    {
      "inputs": [
        {
          "internalType": "address",
          "name": "newOwner",
          "type": "address"
        }
      ],
      "name": "transferOwnership",
      "outputs": [],
      "stateMutability": "nonpayable",
      "type": "function"
    },
    {
      "inputs": [
        {
          "internalType": "uint256",
          "name": "",
          "type": "uint256"
        }
      ],
      "name": "uri",
      "outputs": [
        {
          "internalType": "string",
          "name": "",
          "type": "string"
        }
      ],
      "stateMutability": "view",
      "type": "function"
    },
    {
      "inputs": [
        {
          "internalType": "string",
          "name": "newuri",
          "type": "string"
        }
      ],
      "name": "setURI",
      "outputs": [],
      "stateMutability": "nonpayable",
      "type": "function"
    },
    {
      "inputs": [
        {
          "internalType": "address",
          "name": "account",
          "type": "address"
        },
        {
          "internalType": "uint256",
          "name": "id",
          "type": "uint256"
        },
        {
          "internalType": "uint256",
          "name": "amount",
          "type": "uint256"
        },
        {
          "internalType": "bytes",
          "name": "data",
          "type": "bytes"
        }
      ],
      "name": "mint",
      "outputs": [],
      "stateMutability": "nonpayable",
      "type": "function"
    },
    {
      "inputs": [
        {
          "internalType": "address",
          "name": "to",
          "type": "address"
        },
        {
          "internalType": "uint256[]",
          "name": "ids",
          "type": "uint256[]"
        },
        {
          "internalType": "uint256[]",
          "name": "amounts",
          "type": "uint256[]"
        },
        {
          "internalType": "bytes",
          "name": "data",
          "type": "bytes"
        }
      ],
      "name": "mintBatch",
      "outputs": [],
      "stateMutability": "nonpayable",
      "type": "function"
    }
  ],
  "bytecode": "0x60806040523480156200001157600080fd5b5060405162003afb38038062003afb83398181016040528101906200003791906200031b565b604051806020016040528060008152506200005881620000a560201b60201c565b50620000796200006d620000ba60201b60201c565b620000c260201b60201c565b81600490816200008a9190620005eb565b5080600590816200009c9190620005eb565b505050620006d2565b8060029081620000b69190620005eb565b5050565b600033905090565b6000600360009054906101000a900473ffffffffffffffffffffffffffffffffffffffff16905081600360006101000a81548173ffffffffffffffffffffffffffffffffffffffff021916908373ffffffffffffffffffffffffffffffffffffffff1602179055508173ffffffffffffffffffffffffffffffffffffffff168173ffffffffffffffffffffffffffffffffffffffff167f8be0079c531659141344cd1fd0a4f28419497f9722a3daafe3b4186f6b6457e060405160405180910390a35050565b6000604051905090565b600080fd5b600080fd5b600080fd5b600080fd5b6000601f19601f8301169050919050565b7f4e487b7100000000000000000000000000000000000000000000000000000000600052604160045260246000fd5b620001f182620001a6565b810181811067ffffffffffffffff82111715620002135762000212620001b7565b5b80604052505050565b60006200022862000188565b9050620002368282620001e6565b919050565b600067ffffffffffffffff821115620002595762000258620001b7565b5b6200026482620001a6565b9050602081019050919050565b60005b838110156200029157808201518184015260208101905062000274565b60008484015250505050565b6000620002b4620002ae846200023b565b6200021c565b905082815260208101848484011115620002d357620002d2620001a1565b5b620002e084828562000271565b509392505050565b600082601f8301126200030057620002ff6200019c565b5b8151620003128482602086016200029d565b91505092915050565b6000806040838503121562000335576200033462000192565b5b600083015167ffffffffffffffff81111562000356576200035562000197565b5b6200036485828601620002e8565b925050602083015167ffffffffffffffff81111562000388576200038762000197565b5b6200039685828601620002e8565b9150509250929050565b600081519050919050565b7f4e487b7100000000000000000000000000000000000000000000000000000000600052602260045260246000fd5b60006002820490506001821680620003f357607f821691505b602082108103620004095762000408620003ab565b5b50919050565b60008190508160005260206000209050919050565b60006020601f8301049050919050565b600082821b905092915050565b600060088302620004737fffffffffffffffffffffffffffffffffffffffffffffffffffffffffffffffff8262000434565b6200047f868362000434565b95508019841693508086168417925050509392505050565b6000819050919050565b6000819050919050565b6000620004cc620004c6620004c08462000497565b620004a1565b62000497565b9050919050565b6000819050919050565b620004e883620004ab565b62000500620004f782620004d3565b84845462000441565b825550505050565b600090565b6200051762000508565b62000524818484620004dd565b505050565b5b818110156200054c57620005406000826200050d565b6001810190506200052a565b5050565b601f8211156200059b5762000565816200040f565b620005708462000424565b8101602085101562000580578190505b620005986200058f8562000424565b83018262000529565b50505b505050565b600082821c905092915050565b6000620005c060001984600802620005a0565b1980831691505092915050565b6000620005db8383620005ad565b9150826002028217905092915050565b620005f682620003a0565b67ffffffffffffffff811115620006125762000611620001b7565b5b6200061e8254620003da565b6200062b82828562000550565b600060209050601f8311600181146200066357600084156200064e578287015190505b6200065a8582620005cd565b865550620006ca565b601f19841662000673866200040f565b60005b828110156200069d5784890151825560018201915060208501945060208101905062000676565b86831015620006bd5784890151620006b9601f891682620005ad565b8355505b6001600288020188555050505b505050505050565b61341980620006e26000396000f3fe608060405234801561001057600080fd5b50600436106100ff5760003560e01c8063715018a611610097578063a22cb46511610066578063a22cb46514610298578063e985e9c5146102b4578063f242432a146102e4578063f2fde38b14610300576100ff565b8063715018a614610236578063731133e9146102405780638da5cb5b1461025c57806395d89b411461027a576100ff565b80630e89341c116100d35780630e89341c1461019e5780631f7fdffa146101ce5780632eb2c2d6146101ea5780634e1273f414610206576100ff565b8062fdd58e1461010457806301ffc9a71461013457806302fe53051461016457806306fdde0314610180575b600080fd5b61011e60048036038101906101199190611c54565b61031c565b60405161012b9190611ca3565b60405180910390f35b61014e60048036038101906101499190611d16565b6103e4565b60405161015b9190611d5e565b60405180910390f35b61017e60048036038101906101799190611ebf565b6104c6565b005b6101886104da565b6040516101959190611f87565b60405180910390f35b6101b860048036038101906101b39190611fa9565b610568565b6040516101c59190611f87565b60405180910390f35b6101e860048036038101906101e3919061213f565b6105fc565b005b61020460048036038101906101ff91906121fa565b610616565b005b610220600480360381019061021b919061238c565b6106b7565b60405161022d91906124c2565b60405180910390f35b61023e6107d0565b005b61025a600480360381019061025591906124e4565b6107e4565b005b6102646107fe565b6040516102719190612576565b60405180910390f35b610282610828565b60405161028f9190611f87565b60405180910390f35b6102b260048036038101906102ad91906125bd565b6108b6565b005b6102ce60048036038101906102c991906125fd565b6108cc565b6040516102db9190611d5e565b60405180910390f35b6102fe60048036038101906102f9919061263d565b610960565b005b61031a600480360381019061031591906126d4565b610a01565b005b60008073ffffffffffffffffffffffffffffffffffffffff168373ffffffffffffffffffffffffffffffffffffffff160361038c576040517f08c379a000000000000000000000000000000000000000000000000000000000815260040161038390612773565b60405180910390fd5b60008083815260200190815260200160002060008473ffffffffffffffffffffffffffffffffffffffff1673ffffffffffffffffffffffffffffffffffffffff16815260200190815260200160002054905092915050565b60007fd9b67a26000000000000000000000000000000000000000000000000000000007bffffffffffffffffffffffffffffffffffffffffffffffffffffffff1916827bffffffffffffffffffffffffffffffffffffffffffffffffffffffff191614806104af57507f0e89341c000000000000000000000000000000000000000000000000000000007bffffffffffffffffffffffffffffffffffffffffffffffffffffffff1916827bffffffffffffffffffffffffffffffffffffffffffffffffffffffff1916145b806104bf57506104be82610a84565b5b9050919050565b6104ce610aee565b6104d781610b6c565b50565b600480546104e7906127c2565b80601f0160208091040260200160405190810160405280929190818152602001828054610513906127c2565b80156105605780601f1061053557610100808354040283529160200191610560565b820191906000526020600020905b81548152906001019060200180831161054357829003601f168201915b505050505081565b606060028054610577906127c2565b80601f01602080910402602001604051908101604052809291908181526020018280546105a3906127c2565b80156105f05780601f106105c5576101008083540402835291602001916105f0565b820191906000526020600020905b8154815290600101906020018083116105d357829003601f168201915b50505050509050919050565b610604610aee565b61061084848484610b7f565b50505050565b61061e610dab565b73ffffffffffffffffffffffffffffffffffffffff168573ffffffffffffffffffffffffffffffffffffffff16148061066457506106638561065e610dab565b6108cc565b5b6106a3576040517f08c379a000000000000000000000000000000000000000000000000000000000815260040161069a90612865565b60405180910390fd5b6106b08585858585610db3565b5050505050565b606081518351146106fd576040517f08c379a00000000000000000000000000000000000000000000000000000000081526004016106f4906128f7565b60405180910390fd5b6000835167ffffffffffffffff81111561071a57610719611d94565b5b6040519080825280602002602001820160405280156107485781602001602082028036833780820191505090505b50905060005b84518110156107c55761079585828151811061076d5761076c612917565b5b602002602001015185838151811061078857610787612917565b5b602002602001015161031c565b8282815181106107a8576107a7612917565b5b602002602001018181525050806107be90612975565b905061074e565b508091505092915050565b6107d8610aee565b6107e260006110d4565b565b6107ec610aee565b6107f88484848461119a565b50505050565b6000600360009054906101000a900473ffffffffffffffffffffffffffffffffffffffff16905090565b60058054610835906127c2565b80601f0160208091040260200160405190810160405280929190818152602001828054610861906127c2565b80156108ae5780601f10610883576101008083540402835291602001916108ae565b820191906000526020600020905b81548152906001019060200180831161089157829003601f168201915b505050505081565b6108c86108c1610dab565b838361134a565b5050565b6000600160008473ffffffffffffffffffffffffffffffffffffffff1673ffffffffffffffffffffffffffffffffffffffff16815260200190815260200160002060008373ffffffffffffffffffffffffffffffffffffffff1673ffffffffffffffffffffffffffffffffffffffff16815260200190815260200160002060009054906101000a900460ff16905092915050565b610968610dab565b73ffffffffffffffffffffffffffffffffffffffff168573ffffffffffffffffffffffffffffffffffffffff1614806109ae57506109ad856109a8610dab565b6108cc565b5b6109ed576040517f08c379a00000000000000000000000000000000000000000000000000000000081526004016109e490612865565b60405180910390fd5b6109fa85858585856114b6565b5050505050565b610a09610aee565b600073ffffffffffffffffffffffffffffffffffffffff168173ffffffffffffffffffffffffffffffffffffffff1603610a78576040517f08c379a0000000000000000000000000000000000000000000000000000000008152600401610a6f90612a2f565b60405180910390fd5b610a81816110d4565b50565b60007f01ffc9a7000000000000000000000000000000000000000000000000000000007bffffffffffffffffffffffffffffffffffffffffffffffffffffffff1916827bffffffffffffffffffffffffffffffffffffffffffffffffffffffff1916149050919050565b610af6610dab565b73ffffffffffffffffffffffffffffffffffffffff16610b146107fe565b73ffffffffffffffffffffffffffffffffffffffff1614610b6a576040517f08c379a0000000000000000000000000000000000000000000000000000000008152600401610b6190612a9b565b60405180910390fd5b565b8060029081610b7b9190612c67565b5050565b600073ffffffffffffffffffffffffffffffffffffffff168473ffffffffffffffffffffffffffffffffffffffff1603610bee576040517f08c379a0000000000000000000000000000000000000000000000000000000008152600401610be590612dab565b60405180910390fd5b8151835114610c32576040517f08c379a0000000000000000000000000000000000000000000000000000000008152600401610c2990612e3d565b60405180910390fd5b6000610c3c610dab565b9050610c4d81600087878787611751565b60005b8451811015610d0657838181518110610c6c57610c6b612917565b5b6020026020010151600080878481518110610c8a57610c89612917565b5b6020026020010151815260200190815260200160002060008873ffffffffffffffffffffffffffffffffffffffff1673ffffffffffffffffffffffffffffffffffffffff1681526020019081526020016000206000828254610cec9190612e5d565b925050819055508080610cfe90612975565b915050610c50565b508473ffffffffffffffffffffffffffffffffffffffff16600073ffffffffffffffffffffffffffffffffffffffff168273ffffffffffffffffffffffffffffffffffffffff167f4a39dc06d4c0dbc64b70af90fd698a233a518aa5d07e595d983b8c0526c8f7fb8787604051610d7e929190612e91565b60405180910390a4610d9581600087878787611759565b610da481600087878787611761565b5050505050565b600033905090565b8151835114610df7576040517f08c379a0000000000000000000000000000000000000000000000000000000008152600401610dee90612e3d565b60405180910390fd5b600073ffffffffffffffffffffffffffffffffffffffff168473ffffffffffffffffffffffffffffffffffffffff1603610e66576040517f08c379a0000000000000000000000000000000000000000000000000000000008152600401610e5d90612f3a565b60405180910390fd5b6000610e70610dab565b9050610e80818787878787611751565b60005b8451811015611031576000858281518110610ea157610ea0612917565b5b602002602001015190506000858381518110610ec057610ebf612917565b5b60200260200101519050600080600084815260200190815260200160002060008b73ffffffffffffffffffffffffffffffffffffffff1673ffffffffffffffffffffffffffffffffffffffff16815260200190815260200160002054905081811015610f61576040517f08c379a0000000000000000000000000000000000000000000000000000000008152600401610f5890612fcc565b60405180910390fd5b81810360008085815260200190815260200160002060008c73ffffffffffffffffffffffffffffffffffffffff1673ffffffffffffffffffffffffffffffffffffffff168152602001908152602001600020819055508160008085815260200190815260200160002060008b73ffffffffffffffffffffffffffffffffffffffff1673ffffffffffffffffffffffffffffffffffffffff16815260200190815260200160002060008282546110169190612e5d565b925050819055505050508061102a90612975565b9050610e83565b508473ffffffffffffffffffffffffffffffffffffffff168673ffffffffffffffffffffffffffffffffffffffff168273ffffffffffffffffffffffffffffffffffffffff167f4a39dc06d4c0dbc64b70af90fd698a233a518aa5d07e595d983b8c0526c8f7fb87876040516110a8929190612e91565b60405180910390a46110be818787878787611759565b6110cc818787878787611761565b505050505050565b6000600360009054906101000a900473ffffffffffffffffffffffffffffffffffffffff16905081600360006101000a81548173ffffffffffffffffffffffffffffffffffffffff021916908373ffffffffffffffffffffffffffffffffffffffff1602179055508173ffffffffffffffffffffffffffffffffffffffff168173ffffffffffffffffffffffffffffffffffffffff167f8be0079c531659141344cd1fd0a4f28419497f9722a3daafe3b4186f6b6457e060405160405180910390a35050565b600073ffffffffffffffffffffffffffffffffffffffff168473ffffffffffffffffffffffffffffffffffffffff1603611209576040517f08c379a000000000000000000000000000000000000000000000000000000000815260040161120090612dab565b60405180910390fd5b6000611213610dab565b9050600061122085611938565b9050600061122d85611938565b905061123e83600089858589611751565b8460008088815260200190815260200160002060008973ffffffffffffffffffffffffffffffffffffffff1673ffffffffffffffffffffffffffffffffffffffff168152602001908152602001600020600082825461129d9190612e5d565b925050819055508673ffffffffffffffffffffffffffffffffffffffff16600073ffffffffffffffffffffffffffffffffffffffff168473ffffffffffffffffffffffffffffffffffffffff167fc3d58168c5ae7397731d063d5bbf3d657854427343f4c083240f7aacaa2d0f62898960405161131b929190612fec565b60405180910390a461133283600089858589611759565b611341836000898989896119b2565b50505050505050565b8173ffffffffffffffffffffffffffffffffffffffff168373ffffffffffffffffffffffffffffffffffffffff16036113b8576040517f08c379a00000000000000000000000000000000000000000000000000000000081526004016113af90613087565b60405180910390fd5b80600160008573ffffffffffffffffffffffffffffffffffffffff1673ffffffffffffffffffffffffffffffffffffffff16815260200190815260200160002060008473ffffffffffffffffffffffffffffffffffffffff1673ffffffffffffffffffffffffffffffffffffffff16815260200190815260200160002060006101000a81548160ff0219169083151502179055508173ffffffffffffffffffffffffffffffffffffffff168373ffffffffffffffffffffffffffffffffffffffff167f17307eab39ab6107e8899845ad3d59bd9653f200f220920489ca2b5937696c31836040516114a99190611d5e565b60405180910390a3505050565b600073ffffffffffffffffffffffffffffffffffffffff168473ffffffffffffffffffffffffffffffffffffffff1603611525576040517f08c379a000000000000000000000000000000000000000000000000000000000815260040161151c90612f3a565b60405180910390fd5b600061152f610dab565b9050600061153c85611938565b9050600061154985611938565b9050611559838989858589611751565b600080600088815260200190815260200160002060008a73ffffffffffffffffffffffffffffffffffffffff1673ffffffffffffffffffffffffffffffffffffffff168152602001908152602001600020549050858110156115f0576040517f08c379a00000000000000000000000000000000000000000000000000000000081526004016115e790612fcc565b60405180910390fd5b85810360008089815260200190815260200160002060008b73ffffffffffffffffffffffffffffffffffffffff1673ffffffffffffffffffffffffffffffffffffffff168152602001908152602001600020819055508560008089815260200190815260200160002060008a73ffffffffffffffffffffffffffffffffffffffff1673ffffffffffffffffffffffffffffffffffffffff16815260200190815260200160002060008282546116a59190612e5d565b925050819055508773ffffffffffffffffffffffffffffffffffffffff168973ffffffffffffffffffffffffffffffffffffffff168573ffffffffffffffffffffffffffffffffffffffff167fc3d58168c5ae7397731d063d5bbf3d657854427343f4c083240f7aacaa2d0f628a8a604051611722929190612fec565b60405180910390a4611738848a8a86868a611759565b611746848a8a8a8a8a6119b2565b505050505050505050565b505050505050565b505050505050565b6117808473ffffffffffffffffffffffffffffffffffffffff16611b89565b15611930578373ffffffffffffffffffffffffffffffffffffffff1663bc197c8187878686866040518663ffffffff1660e01b81526004016117c69594939291906130fc565b6020604051808303816000875af192505050801561180257506040513d601f19601f820116820180604052508101906117ff9190613179565b60015b6118a75761180e6131b3565b806308c379a00361186a57506118226131d5565b8061182d575061186c565b806040517f08c379a00000000000000000000000000000000000000000000000000000000081526004016118619190611f87565b60405180910390fd5b505b6040517f08c379a000000000000000000000000000000000000000000000000000000000815260040161189e906132d7565b60405180910390fd5b63bc197c8160e01b7bffffffffffffffffffffffffffffffffffffffffffffffffffffffff1916817bffffffffffffffffffffffffffffffffffffffffffffffffffffffff19161461192e576040517f08c379a000000000000000000000000000000000000000000000000000000000815260040161192590613369565b60405180910390fd5b505b505050505050565b60606000600167ffffffffffffffff81111561195757611956611d94565b5b6040519080825280602002602001820160405280156119855781602001602082028036833780820191505090505b509050828160008151811061199d5761199c612917565b5b60200260200101818152505080915050919050565b6119d18473ffffffffffffffffffffffffffffffffffffffff16611b89565b15611b81578373ffffffffffffffffffffffffffffffffffffffff1663f23a6e6187878686866040518663ffffffff1660e01b8152600401611a17959493929190613389565b6020604051808303816000875af1925050508015611a5357506040513d601f19601f82011682018060405250810190611a509190613179565b60015b611af857611a5f6131b3565b806308c379a003611abb5750611a736131d5565b80611a7e5750611abd565b806040517f08c379a0000000000000000000000000000000000000000000000000000000008152600401611ab29190611f87565b60405180910390fd5b505b6040517f08c379a0000000000000000000000000000000000000000000000000000000008152600401611aef906132d7565b60405180910390fd5b63f23a6e6160e01b7bffffffffffffffffffffffffffffffffffffffffffffffffffffffff1916817bffffffffffffffffffffffffffffffffffffffffffffffffffffffff191614611b7f576040517f08c379a0000000000000000000000000000000000000000000000000000000008152600401611b7690613369565b60405180910390fd5b505b505050505050565b6000808273ffffffffffffffffffffffffffffffffffffffff163b119050919050565b6000604051905090565b600080fd5b600080fd5b600073ffffffffffffffffffffffffffffffffffffffff82169050919050565b6000611beb82611bc0565b9050919050565b611bfb81611be0565b8114611c0657600080fd5b50565b600081359050611c1881611bf2565b92915050565b6000819050919050565b611c3181611c1e565b8114611c3c57600080fd5b50565b600081359050611c4e81611c28565b92915050565b60008060408385031215611c6b57611c6a611bb6565b5b6000611c7985828601611c09565b9250506020611c8a85828601611c3f565b9150509250929050565b611c9d81611c1e565b82525050565b6000602082019050611cb86000830184611c94565b92915050565b60007fffffffff0000000000000000000000000000000000000000000000000000000082169050919050565b611cf381611cbe565b8114611cfe57600080fd5b50565b600081359050611d1081611cea565b92915050565b600060208284031215611d2c57611d2b611bb6565b5b6000611d3a84828501611d01565b91505092915050565b60008115159050919050565b611d5881611d43565b82525050565b6000602082019050611d736000830184611d4f565b92915050565b600080fd5b600080fd5b6000601f19601f8301169050919050565b7f4e487b7100000000000000000000000000000000000000000000000000000000600052604160045260246000fd5b611dcc82611d83565b810181811067ffffffffffffffff82111715611deb57611dea611d94565b5b80604052505050565b6000611dfe611bac565b9050611e0a8282611dc3565b919050565b600067ffffffffffffffff821115611e2a57611e29611d94565b5b611e3382611d83565b9050602081019050919050565b82818337600083830152505050565b6000611e62611e5d84611e0f565b611df4565b905082815260208101848484011115611e7e57611e7d611d7e565b5b611e89848285611e40565b509392505050565b600082601f830112611ea657611ea5611d79565b5b8135611eb6848260208601611e4f565b91505092915050565b600060208284031215611ed557611ed4611bb6565b5b600082013567ffffffffffffffff811115611ef357611ef2611bbb565b5b611eff84828501611e91565b91505092915050565b600081519050919050565b600082825260208201905092915050565b60005b83811015611f42578082015181840152602081019050611f27565b60008484015250505050565b6000611f5982611f08565b611f638185611f13565b9350611f73818560208601611f24565b611f7c81611d83565b840191505092915050565b60006020820190508181036000830152611fa18184611f4e565b905092915050565b600060208284031215611fbf57611fbe611bb6565b5b6000611fcd84828501611c3f565b91505092915050565b600067ffffffffffffffff821115611ff157611ff0611d94565b5b602082029050602081019050919050565b600080fd5b600061201a61201584611fd6565b611df4565b9050808382526020820190506020840283018581111561203d5761203c612002565b5b835b8181101561206657806120528882611c3f565b84526020840193505060208101905061203f565b5050509392505050565b600082601f83011261208557612084611d79565b5b8135612095848260208601612007565b91505092915050565b600067ffffffffffffffff8211156120b9576120b8611d94565b5b6120c282611d83565b9050602081019050919050565b60006120e26120dd8461209e565b611df4565b9050828152602081018484840111156120fe576120fd611d7e565b5b612109848285611e40565b509392505050565b600082601f83011261212657612125611d79565b5b81356121368482602086016120cf565b91505092915050565b6000806000806080858703121561215957612158611bb6565b5b600061216787828801611c09565b945050602085013567ffffffffffffffff81111561218857612187611bbb565b5b61219487828801612070565b935050604085013567ffffffffffffffff8111156121b5576121b4611bbb565b5b6121c187828801612070565b925050606085013567ffffffffffffffff8111156121e2576121e1611bbb565b5b6121ee87828801612111565b91505092959194509250565b600080600080600060a0868803121561221657612215611bb6565b5b600061222488828901611c09565b955050602061223588828901611c09565b945050604086013567ffffffffffffffff81111561225657612255611bbb565b5b61226288828901612070565b935050606086013567ffffffffffffffff81111561228357612282611bbb565b5b61228f88828901612070565b925050608086013567ffffffffffffffff8111156122b0576122af611bbb565b5b6122bc88828901612111565b9150509295509295909350565b600067ffffffffffffffff8211156122e4576122e3611d94565b5b602082029050602081019050919050565b6000612308612303846122c9565b611df4565b9050808382526020820190506020840283018581111561232b5761232a612002565b5b835b8181101561235457806123408882611c09565b84526020840193505060208101905061232d565b5050509392505050565b600082601f83011261237357612372611d79565b5b81356123838482602086016122f5565b91505092915050565b600080604083850312156123a3576123a2611bb6565b5b600083013567ffffffffffffffff8111156123c1576123c0611bbb565b5b6123cd8582860161235e565b925050602083013567ffffffffffffffff8111156123ee576123ed611bbb565b5b6123fa85828601612070565b9150509250929050565b600081519050919050565b600082825260208201905092915050565b6000819050602082019050919050565b61243981611c1e565b82525050565b600061244b8383612430565b60208301905092915050565b6000602082019050919050565b600061246f82612404565b612479818561240f565b935061248483612420565b8060005b838110156124b557815161249c888261243f565b97506124a783612457565b925050600181019050612488565b5085935050505092915050565b600060208201905081810360008301526124dc8184612464565b905092915050565b600080600080608085870312156124fe576124fd611bb6565b5b600061250c87828801611c09565b945050602061251d87828801611c3f565b935050604061252e87828801611c3f565b925050606085013567ffffffffffffffff81111561254f5761254e611bbb565b5b61255b87828801612111565b91505092959194509250565b61257081611be0565b82525050565b600060208201905061258b6000830184612567565b92915050565b61259a81611d43565b81146125a557600080fd5b50565b6000813590506125b781612591565b92915050565b600080604083850312156125d4576125d3611bb6565b5b60006125e285828601611c09565b92505060206125f3858286016125a8565b9150509250929050565b6000806040838503121561261457612613611bb6565b5b600061262285828601611c09565b925050602061263385828601611c09565b9150509250929050565b600080600080600060a0868803121561265957612658611bb6565b5b600061266788828901611c09565b955050602061267888828901611c09565b945050604061268988828901611c3f565b935050606061269a88828901611c3f565b925050608086013567ffffffffffffffff8111156126bb576126ba611bbb565b5b6126c788828901612111565b9150509295509295909350565b6000602082840312156126ea576126e9611bb6565b5b60006126f884828501611c09565b91505092915050565b7f455243313135353a2061646472657373207a65726f206973206e6f742061207660008201527f616c6964206f776e657200000000000000000000000000000000000000000000602082015250565b600061275d602a83611f13565b915061276882612701565b604082019050919050565b6000602082019050818103600083015261278c81612750565b9050919050565b7f4e487b7100000000000000000000000000000000000000000000000000000000600052602260045260246000fd5b600060028204905060018216806127da57607f821691505b6020821081036127ed576127ec612793565b5b50919050565b7f455243313135353a2063616c6c6572206973206e6f7420746f6b656e206f776e60008201527f6572206f7220617070726f766564000000000000000000000000000000000000602082015250565b600061284f602e83611f13565b915061285a826127f3565b604082019050919050565b6000602082019050818103600083015261287e81612842565b9050919050565b7f455243313135353a206163636f756e747320616e6420696473206c656e67746860008201527f206d69736d617463680000000000000000000000000000000000000000000000602082015250565b60006128e1602983611f13565b91506128ec82612885565b604082019050919050565b60006020820190508181036000830152612910816128d4565b9050919050565b7f4e487b7100000000000000000000000000000000000000000000000000000000600052603260045260246000fd5b7f4e487b7100000000000000000000000000000000000000000000000000000000600052601160045260246000fd5b600061298082611c1e565b91507fffffffffffffffffffffffffffffffffffffffffffffffffffffffffffffffff82036129b2576129b1612946565b5b600182019050919050565b7f4f776e61626c653a206e6577206f776e657220697320746865207a65726f206160008201527f6464726573730000000000000000000000000000000000000000000000000000602082015250565b6000612a19602683611f13565b9150612a24826129bd565b604082019050919050565b60006020820190508181036000830152612a4881612a0c565b9050919050565b7f4f776e61626c653a2063616c6c6572206973206e6f7420746865206f776e6572600082015250565b6000612a85602083611f13565b9150612a9082612a4f565b602082019050919050565b60006020820190508181036000830152612ab481612a78565b9050919050565b60008190508160005260206000209050919050565b60006020601f8301049050919050565b600082821b905092915050565b600060088302612b1d7fffffffffffffffffffffffffffffffffffffffffffffffffffffffffffffffff82612ae0565b612b278683612ae0565b95508019841693508086168417925050509392505050565b6000819050919050565b6000612b64612b5f612b5a84611c1e565b612b3f565b611c1e565b9050919050565b6000819050919050565b612b7e83612b49565b612b92612b8a82612b6b565b848454612aed565b825550505050565b600090565b612ba7612b9a565b612bb2818484612b75565b505050565b5b81811015612bd657612bcb600082612b9f565b600181019050612bb8565b5050565b601f821115612c1b57612bec81612abb565b612bf584612ad0565b81016020851015612c04578190505b612c18612c1085612ad0565b830182612bb7565b50505b505050565b600082821c905092915050565b6000612c3e60001984600802612c20565b1980831691505092915050565b6000612c578383612c2d565b9150826002028217905092915050565b612c7082611f08565b67ffffffffffffffff811115612c8957612c88611d94565b5b612c9382546127c2565b612c9e828285612bda565b600060209050601f831160018114612cd15760008415612cbf578287015190505b612cc98582612c4b565b865550612d31565b601f198416612cdf86612abb565b60005b82811015612d0757848901518255600182019150602085019450602081019050612ce2565b86831015612d245784890151612d20601f891682612c2d565b8355505b6001600288020188555050505b505050505050565b7f455243313135353a206d696e7420746f20746865207a65726f2061646472657360008201527f7300000000000000000000000000000000000000000000000000000000000000602082015250565b6000612d95602183611f13565b9150612da082612d39565b604082019050919050565b60006020820190508181036000830152612dc481612d88565b9050919050565b7f455243313135353a2069647320616e6420616d6f756e7473206c656e6774682060008201527f6d69736d61746368000000000000000000000000000000000000000000000000602082015250565b6000612e27602883611f13565b9150612e3282612dcb565b604082019050919050565b60006020820190508181036000830152612e5681612e1a565b9050919050565b6000612e6882611c1e565b9150612e7383611c1e565b9250828201905080821115612e8b57612e8a612946565b5b92915050565b60006040820190508181036000830152612eab8185612464565b90508181036020830152612ebf8184612464565b90509392505050565b7f455243313135353a207472616e7366657220746f20746865207a65726f20616460008201527f6472657373000000000000000000000000000000000000000000000000000000602082015250565b6000612f24602583611f13565b9150612f2f82612ec8565b604082019050919050565b60006020820190508181036000830152612f5381612f17565b9050919050565b7f455243313135353a20696e73756666696369656e742062616c616e636520666f60008201527f72207472616e7366657200000000000000000000000000000000000000000000602082015250565b6000612fb6602a83611f13565b9150612fc182612f5a565b604082019050919050565b60006020820190508181036000830152612fe581612fa9565b9050919050565b60006040820190506130016000830185611c94565b61300e6020830184611c94565b9392505050565b7f455243313135353a2073657474696e6720617070726f76616c2073746174757360008201527f20666f722073656c660000000000000000000000000000000000000000000000602082015250565b6000613071602983611f13565b915061307c82613015565b604082019050919050565b600060208201905081810360008301526130a081613064565b9050919050565b600081519050919050565b600082825260208201905092915050565b60006130ce826130a7565b6130d881856130b2565b93506130e8818560208601611f24565b6130f181611d83565b840191505092915050565b600060a0820190506131116000830188612567565b61311e6020830187612567565b81810360408301526131308186612464565b905081810360608301526131448185612464565b9050818103608083015261315881846130c3565b90509695505050505050565b60008151905061317381611cea565b92915050565b60006020828403121561318f5761318e611bb6565b5b600061319d84828501613164565b91505092915050565b60008160e01c9050919050565b600060033d11156131d25760046000803e6131cf6000516131a6565b90505b90565b600060443d10613262576131e7611bac565b60043d036004823e80513d602482011167ffffffffffffffff8211171561320f575050613262565b808201805167ffffffffffffffff81111561322d5750505050613262565b80602083010160043d03850181111561324a575050505050613262565b61325982602001850186611dc3565b82955050505050505b90565b7f455243313135353a207472616e7366657220746f206e6f6e2d4552433131353560008201527f526563656976657220696d706c656d656e746572000000000000000000000000602082015250565b60006132c1603483611f13565b91506132cc82613265565b604082019050919050565b600060208201905081810360008301526132f0816132b4565b9050919050565b7f455243313135353a204552433131353552656365697665722072656a6563746560008201527f6420746f6b656e73000000000000000000000000000000000000000000000000602082015250565b6000613353602883611f13565b915061335e826132f7565b604082019050919050565b6000602082019050818103600083015261338281613346565b9050919050565b600060a08201905061339e6000830188612567565b6133ab6020830187612567565b6133b86040830186611c94565b6133c56060830185611c94565b81810360808301526133d781846130c3565b9050969550505050505056fea26469706673582212208982df073e2d1335c23857084ea55ee92de4e46a8815d7c81637d7f001a6aaa164736f6c63430008130033",
  "immutableReferences": {},
  "source": "// SPDX-License-Identifier: MIT\npragma solidity ^0.8.9;\n\nimport \"@openzeppelin/contracts/token/ERC1155/ERC1155.sol\";\nimport \"@openzeppelin/contracts/access/Ownable.sol\";\n\ncontract Erc1155Token is ERC1155, Ownable {\n    string public name;\n    string public symbol;\n\n    constructor(\n        string memory _name,\n        string memory _symbol\n    ) ERC1155(\"\") Ownable() {\n        name = _name;\n        symbol = _symbol;\n    }\n\n    function setURI(string memory newuri) public onlyOwner {\n        _setURI(newuri);\n    }\n\n    function mint(\n        address account,\n        uint256 id,\n        uint256 amount,\n        bytes memory data\n    ) public onlyOwner {\n        _mint(account, id, amount, data);\n    }\n\n    function mintBatch(\n        address to,\n        uint256[] memory ids,\n        uint256[] memory amounts,\n        bytes memory data\n    ) public onlyOwner {\n        _mintBatch(to, ids, amounts, data);\n    }\n}\n",
  "sourcePath": "/Users/kmlcnclk/Documents/GitHub/protocol-ui/contracts/Erc1155Token.sol",
  "compiler": {
    "name": "solc",
    "version": "0.8.19+commit.7dd6d404.Emscripten.clang"
  },
  "schemaVersion": "3.4.15",
  "updatedAt": "2023-11-03T13:23:39.783Z",
  "devdoc": {
    "events": {
      "ApprovalForAll(address,address,bool)": {
        "details": "Emitted when `account` grants or revokes permission to `operator` to transfer their tokens, according to `approved`."
      },
      "TransferBatch(address,address,address,uint256[],uint256[])": {
        "details": "Equivalent to multiple {TransferSingle} events, where `operator`, `from` and `to` are the same for all transfers."
      },
      "TransferSingle(address,address,address,uint256,uint256)": {
        "details": "Emitted when `value` tokens of token type `id` are transferred from `from` to `to` by `operator`."
      },
      "URI(string,uint256)": {
        "details": "Emitted when the URI for token type `id` changes to `value`, if it is a non-programmatic URI. If an {URI} event was emitted for `id`, the standard https://eips.ethereum.org/EIPS/eip-1155#metadata-extensions[guarantees] that `value` will equal the value returned by {IERC1155MetadataURI-uri}."
      }
    },
    "kind": "dev",
    "methods": {
      "balanceOf(address,uint256)": {
        "details": "See {IERC1155-balanceOf}. Requirements: - `account` cannot be the zero address."
      },
      "balanceOfBatch(address[],uint256[])": {
        "details": "See {IERC1155-balanceOfBatch}. Requirements: - `accounts` and `ids` must have the same length."
      },
      "isApprovedForAll(address,address)": {
        "details": "See {IERC1155-isApprovedForAll}."
      },
      "owner()": {
        "details": "Returns the address of the current owner."
      },
      "renounceOwnership()": {
        "details": "Leaves the contract without owner. It will not be possible to call `onlyOwner` functions. Can only be called by the current owner. NOTE: Renouncing ownership will leave the contract without an owner, thereby disabling any functionality that is only available to the owner."
      },
      "safeBatchTransferFrom(address,address,uint256[],uint256[],bytes)": {
        "details": "See {IERC1155-safeBatchTransferFrom}."
      },
      "safeTransferFrom(address,address,uint256,uint256,bytes)": {
        "details": "See {IERC1155-safeTransferFrom}."
      },
      "setApprovalForAll(address,bool)": {
        "details": "See {IERC1155-setApprovalForAll}."
      },
      "supportsInterface(bytes4)": {
        "details": "See {IERC165-supportsInterface}."
      },
      "transferOwnership(address)": {
        "details": "Transfers ownership of the contract to a new account (`newOwner`). Can only be called by the current owner."
      },
      "uri(uint256)": {
        "details": "See {IERC1155MetadataURI-uri}. This implementation returns the same URI for *all* token types. It relies on the token type ID substitution mechanism https://eips.ethereum.org/EIPS/eip-1155#metadata[defined in the EIP]. Clients calling this function must replace the `\\{id\\}` substring with the actual token type ID."
      }
    },
    "version": 1
  },
  "userdoc": {
    "kind": "user",
    "methods": {},
    "version": 1
  }
}